{
  "contractName": "PetitionContract",
  "abi": [
    {
      "inputs": [],
      "stateMutability": "nonpayable",
      "type": "constructor"
    },
    {
      "anonymous": false,
      "inputs": [
        {
          "indexed": true,
          "internalType": "uint256",
          "name": "id",
          "type": "uint256"
        },
        {
          "indexed": false,
          "internalType": "string",
          "name": "title",
          "type": "string"
        },
        {
          "indexed": false,
          "internalType": "string",
          "name": "organizer",
          "type": "string"
        },
        {
          "indexed": false,
          "internalType": "string",
          "name": "img",
          "type": "string"
        },
        {
          "indexed": false,
          "internalType": "string",
          "name": "category",
          "type": "string"
        },
        {
          "indexed": false,
          "internalType": "uint256",
          "name": "targetSignatures",
          "type": "uint256"
        }
      ],
      "name": "PetitionCreated",
      "type": "event"
    },
    {
      "anonymous": false,
      "inputs": [
        {
          "indexed": true,
          "internalType": "address",
          "name": "signer",
          "type": "address"
        },
        {
          "indexed": true,
          "internalType": "uint256",
          "name": "petitionId",
          "type": "uint256"
        }
      ],
      "name": "PetitionSigned",
      "type": "event"
    },
    {
      "inputs": [],
      "name": "counterPetition",
      "outputs": [
        {
          "internalType": "uint256",
          "name": "",
          "type": "uint256"
        }
      ],
      "stateMutability": "view",
      "type": "function",
      "constant": true
    },
    {
      "inputs": [
        {
          "internalType": "uint256",
          "name": "",
          "type": "uint256"
        }
      ],
      "name": "petitions",
      "outputs": [
        {
          "internalType": "uint256",
          "name": "id",
          "type": "uint256"
        },
        {
          "internalType": "string",
          "name": "title",
          "type": "string"
        },
        {
          "internalType": "string",
          "name": "organizer",
          "type": "string"
        },
        {
          "internalType": "string",
          "name": "img",
          "type": "string"
        },
        {
          "internalType": "string",
          "name": "category",
          "type": "string"
        },
        {
          "internalType": "uint256",
          "name": "targetSignatures",
          "type": "uint256"
        },
        {
          "internalType": "uint256",
          "name": "numSignatures",
          "type": "uint256"
        },
        {
          "internalType": "bool",
          "name": "isActive",
          "type": "bool"
        }
      ],
      "stateMutability": "view",
      "type": "function",
      "constant": true
    },
    {
      "inputs": [
        {
          "internalType": "address",
          "name": "",
          "type": "address"
        },
        {
          "internalType": "uint256",
          "name": "",
          "type": "uint256"
        }
      ],
      "name": "signedPetitions",
      "outputs": [
        {
          "internalType": "uint256",
          "name": "",
          "type": "uint256"
        }
      ],
      "stateMutability": "view",
      "type": "function",
      "constant": true
    },
    {
      "inputs": [],
      "name": "loadPetition",
      "outputs": [],
      "stateMutability": "nonpayable",
      "type": "function"
    },
    {
      "inputs": [
        {
          "internalType": "uint256",
          "name": "id",
          "type": "uint256"
        },
        {
          "internalType": "string",
          "name": "title",
          "type": "string"
        },
        {
          "internalType": "string",
          "name": "organizer",
          "type": "string"
        },
        {
          "internalType": "string",
          "name": "img",
          "type": "string"
        },
        {
          "internalType": "string",
          "name": "category",
          "type": "string"
        },
        {
          "internalType": "uint256",
          "name": "targetSignatures",
          "type": "uint256"
        },
        {
          "internalType": "uint256",
          "name": "numSignatures",
          "type": "uint256"
        }
      ],
      "name": "createPetition",
      "outputs": [],
      "stateMutability": "nonpayable",
      "type": "function"
    },
    {
      "inputs": [
        {
          "internalType": "uint256",
          "name": "petitionId",
          "type": "uint256"
        }
      ],
      "name": "getPetitionDetails",
      "outputs": [
        {
          "internalType": "uint256",
          "name": "id",
          "type": "uint256"
        },
        {
          "internalType": "string",
          "name": "title",
          "type": "string"
        },
        {
          "internalType": "string",
          "name": "organizer",
          "type": "string"
        },
        {
          "internalType": "string",
          "name": "img",
          "type": "string"
        },
        {
          "internalType": "string",
          "name": "category",
          "type": "string"
        },
        {
          "internalType": "uint256",
          "name": "targetSignatures",
          "type": "uint256"
        },
        {
          "internalType": "uint256",
          "name": "numSignatures",
          "type": "uint256"
        },
        {
          "internalType": "bool",
          "name": "isActive",
          "type": "bool"
        }
      ],
      "stateMutability": "view",
      "type": "function",
      "constant": true
    },
    {
      "inputs": [
        {
          "internalType": "uint256",
          "name": "petitionId",
          "type": "uint256"
        }
      ],
      "name": "signPetition",
      "outputs": [],
      "stateMutability": "nonpayable",
      "type": "function"
    },
    {
      "inputs": [],
      "name": "getAllPetitions",
      "outputs": [
        {
          "components": [
            {
              "internalType": "uint256",
              "name": "id",
              "type": "uint256"
            },
            {
              "internalType": "string",
              "name": "title",
              "type": "string"
            },
            {
              "internalType": "string",
              "name": "organizer",
              "type": "string"
            },
            {
              "internalType": "string",
              "name": "img",
              "type": "string"
            },
            {
              "internalType": "string",
              "name": "category",
              "type": "string"
            },
            {
              "internalType": "uint256",
              "name": "targetSignatures",
              "type": "uint256"
            },
            {
              "internalType": "uint256",
              "name": "numSignatures",
              "type": "uint256"
            },
            {
              "internalType": "bool",
              "name": "isActive",
              "type": "bool"
            }
          ],
          "internalType": "struct PetitionContract.Petition[]",
          "name": "",
          "type": "tuple[]"
        }
      ],
      "stateMutability": "view",
      "type": "function",
      "constant": true
    },
    {
      "inputs": [
        {
          "internalType": "address",
          "name": "signer",
          "type": "address"
        }
      ],
      "name": "getSignedPetitionIds",
      "outputs": [
        {
          "internalType": "uint256[]",
          "name": "",
          "type": "uint256[]"
        }
      ],
      "stateMutability": "view",
      "type": "function",
      "constant": true
    },
    {
      "inputs": [
        {
          "internalType": "address",
          "name": "signer",
          "type": "address"
        }
      ],
      "name": "getSignedPetitions",
      "outputs": [
        {
          "components": [
            {
              "internalType": "uint256",
              "name": "id",
              "type": "uint256"
            },
            {
              "internalType": "string",
              "name": "title",
              "type": "string"
            },
            {
              "internalType": "string",
              "name": "organizer",
              "type": "string"
            },
            {
              "internalType": "string",
              "name": "img",
              "type": "string"
            },
            {
              "internalType": "string",
              "name": "category",
              "type": "string"
            },
            {
              "internalType": "uint256",
              "name": "targetSignatures",
              "type": "uint256"
            },
            {
              "internalType": "uint256",
              "name": "numSignatures",
              "type": "uint256"
            },
            {
              "internalType": "bool",
              "name": "isActive",
              "type": "bool"
            }
          ],
          "internalType": "struct PetitionContract.Petition[]",
          "name": "",
          "type": "tuple[]"
        }
      ],
      "stateMutability": "view",
      "type": "function",
      "constant": true
    }
  ],
  "bytecode": "0x60806040523480156200001157600080fd5b5060008081905550620000296200002f60201b60201c565b62000db9565b6200010260016040518060600160405280602381526020016200376e602391396040518060400160405280601181526020017f477265656e4561727468204974616c69610000000000000000000000000000008152506040518060400160405280601c81526020017f696d616765732f7065746974696f6e732f706c61737469632e706e67000000008152506040518060400160405280600881526020017f416d6269656e74650000000000000000000000000000000000000000000000008152506132c860466200067a60201b60201c565b620001ba600260405180606001604052806024815260200162003706602491396040518060400160405280600981526020017f596f7572566f696365000000000000000000000000000000000000000000000081525060405180606001604052806024815260200162003829602491396040518060400160405280600d81526020017f4469726974746920556d616e6900000000000000000000000000000000000000815250614e20611f406200067a60201b60201c565b6200027260036040518060600160405280602d8152602001620037b9602d91396040518060400160405280601281526020017f437275656c7479467265652042656175747900000000000000000000000000008152506040518060600160405280602281526020016200372a602291396040518060400160405280600781526020017f416e696d616c6900000000000000000000000000000000000000000000000000815250611f40611f3f6200067a60201b60201c565b6200032a600460405180606001604052806028815260200162003791602891396040518060400160405280601581526020017f466f6e64617a696f6e65205363756f6c6153616e6100000000000000000000008152506040518060600160405280602281526020016200374c602291396040518060400160405280601b81526020017f53616c757465204d656e74616c6520652049737472757a696f6e6500000000008152506127106102f66200067a60201b60201c565b620003fe600560405180606001604052806022815260200162003871602291396040518060400160405280601881526020017f476c6f62616c204865616c746820496e697469617469766500000000000000008152506040518060400160405280601d81526020017f696d616765732f7065746974696f6e732f65706964656d69652e6a70670000008152506040518060400160405280600681526020017f53616c757465000000000000000000000000000000000000000000000000000081525061c350616d606200067a60201b60201c565b620004d160066040518060600160405280602481526020016200384d602491396040518060400160405280601181526020017f426c7520436f72616c2050726f6a6563740000000000000000000000000000008152506040518060400160405280601f81526020017f696d616765732f7065746974696f6e732f636f72616c2d726565662e6a7067008152506040518060400160405280600881526020017f416d6269656e7465000000000000000000000000000000000000000000000000815250611b5860056200067a60201b60201c565b620005a56007604051806060016040528060228152602001620037e6602291396040518060400160405280601d81526020017f5265746520646920536f737465676e6f207065722046616d69676c69650000008152506040518060400160405280601d81526020017f696d616765732f7065746974696f6e732f66616d69676c69652e706e670000008152506040518060400160405280600881526020017f46616d69676c6961000000000000000000000000000000000000000000000000815250614e206102da6200067a60201b60201c565b62000678600860405180606001604052806021815260200162003808602191396040518060400160405280601f81526020017f4173736f6369617a696f6e652043756c747572616c65204172746556697661008152506040518060400160405280601b81526020017f696d616765732f7065746974696f6e732f6d757365756d2e6a706700000000008152506040518060400160405280600781526020017f43756c7475726100000000000000000000000000000000000000000000000000815250611d4c60826200067a60201b60201c565b565b6000600160008981526020019081526020016000206000015414620006d6576040517f08c379a0000000000000000000000000000000000000000000000000000000008152600401620006cd90620008b2565b60405180910390fd5b604051806101000160405280888152602001878152602001868152602001858152602001848152602001838152602001828152602001600115158152506001600089815260200190815260200160002060008201518160000155602082015181600101908162000747919062000b4e565b5060408201518160020190816200075f919062000b4e565b50606082015181600301908162000777919062000b4e565b5060808201518160040190816200078f919062000b4e565b5060a0820151816005015560c0820151816006015560e08201518160070160006101000a81548160ff021916908315150217905550905050600080815480929190620007db9062000c64565b9190505550867fa4e56a429d7724cb4fcd3ee3caf47791673c74dbe2330b89a7df408dd0ecea4987878787876040516200081a95949392919062000d40565b60405180910390a250505050505050565b600082825260208201905092915050565b7f5065746974696f6e20776974682073616d6520494420616c726561647920657860008201527f6973747300000000000000000000000000000000000000000000000000000000602082015250565b60006200089a6024836200082b565b9150620008a7826200083c565b604082019050919050565b60006020820190508181036000830152620008cd816200088b565b9050919050565b600081519050919050565b7f4e487b7100000000000000000000000000000000000000000000000000000000600052604160045260246000fd5b7f4e487b7100000000000000000000000000000000000000000000000000000000600052602260045260246000fd5b600060028204905060018216806200095657607f821691505b6020821081036200096c576200096b6200090e565b5b50919050565b60008190508160005260206000209050919050565b60006020601f8301049050919050565b600082821b905092915050565b600060088302620009d67fffffffffffffffffffffffffffffffffffffffffffffffffffffffffffffffff8262000997565b620009e2868362000997565b95508019841693508086168417925050509392505050565b6000819050919050565b6000819050919050565b600062000a2f62000a2962000a2384620009fa565b62000a04565b620009fa565b9050919050565b6000819050919050565b62000a4b8362000a0e565b62000a6362000a5a8262000a36565b848454620009a4565b825550505050565b600090565b62000a7a62000a6b565b62000a8781848462000a40565b505050565b5b8181101562000aaf5762000aa360008262000a70565b60018101905062000a8d565b5050565b601f82111562000afe5762000ac88162000972565b62000ad38462000987565b8101602085101562000ae3578190505b62000afb62000af28562000987565b83018262000a8c565b50505b505050565b600082821c905092915050565b600062000b236000198460080262000b03565b1980831691505092915050565b600062000b3e838362000b10565b9150826002028217905092915050565b62000b5982620008d4565b67ffffffffffffffff81111562000b755762000b74620008df565b5b62000b8182546200093d565b62000b8e82828562000ab3565b600060209050601f83116001811462000bc6576000841562000bb1578287015190505b62000bbd858262000b30565b86555062000c2d565b601f19841662000bd68662000972565b60005b8281101562000c005784890151825560018201915060208501945060208101905062000bd9565b8683101562000c20578489015162000c1c601f89168262000b10565b8355505b6001600288020188555050505b505050505050565b7f4e487b7100000000000000000000000000000000000000000000000000000000600052601160045260246000fd5b600062000c7182620009fa565b91507fffffffffffffffffffffffffffffffffffffffffffffffffffffffffffffffff820362000ca65762000ca562000c35565b5b600182019050919050565b60005b8381101562000cd157808201518184015260208101905062000cb4565b60008484015250505050565b6000601f19601f8301169050919050565b600062000cfb82620008d4565b62000d0781856200082b565b935062000d1981856020860162000cb1565b62000d248162000cdd565b840191505092915050565b62000d3a81620009fa565b82525050565b600060a082019050818103600083015262000d5c818862000cee565b9050818103602083015262000d72818762000cee565b9050818103604083015262000d88818662000cee565b9050818103606083015262000d9e818562000cee565b905062000daf608083018462000d2f565b9695505050505050565b61293d8062000dc96000396000f3fe608060405234801561001057600080fd5b506004361061009e5760003560e01c80639a37c01e116100665780639a37c01e1461017b578063a012284a14610199578063aa69a9d0146101c9578063bb13b4b9146101f9578063dcad0180146102035761009e565b8063040a9017146100a3578063063e0263146100da5780633ad50ded146100f65780634a96f8931461012d5780636092da4c1461014b575b600080fd5b6100bd60048036038101906100b891906119fb565b61021f565b6040516100d1989796959493929190611ae2565b60405180910390f35b6100f460048036038101906100ef9190611cb1565b610506565b005b610110600480360381019061010b91906119fb565b6106a8565b604051610124989796959493929190611ae2565b60405180910390f35b61013561091d565b6040516101429190611dc3565b60405180910390f35b61016560048036038101906101609190611e3c565b610923565b6040516101729190611dc3565b60405180910390f35b610183610954565b604051610190919061206b565b60405180910390f35b6101b360048036038101906101ae919061208d565b610c95565b6040516101c0919061206b565b60405180910390f35b6101e360048036038101906101de919061208d565b611084565b6040516101f09190612169565b60405180910390f35b610201611121565b005b61021d600480360381019061021891906119fb565b611721565b005b6000606080606080600080600080600160008b815260200190815260200160002090506000816000015403610289576040517f08c379a0000000000000000000000000000000000000000000000000000000008152600401610280906121d7565b60405180910390fd5b806000015481600101826002018360030184600401856005015486600601548760070160009054906101000a900460ff168680546102c690612226565b80601f01602080910402602001604051908101604052809291908181526020018280546102f290612226565b801561033f5780601f106103145761010080835404028352916020019161033f565b820191906000526020600020905b81548152906001019060200180831161032257829003601f168201915b5050505050965085805461035290612226565b80601f016020809104026020016040519081016040528092919081815260200182805461037e90612226565b80156103cb5780601f106103a0576101008083540402835291602001916103cb565b820191906000526020600020905b8154815290600101906020018083116103ae57829003601f168201915b505050505095508480546103de90612226565b80601f016020809104026020016040519081016040528092919081815260200182805461040a90612226565b80156104575780601f1061042c57610100808354040283529160200191610457565b820191906000526020600020905b81548152906001019060200180831161043a57829003601f168201915b5050505050945083805461046a90612226565b80601f016020809104026020016040519081016040528092919081815260200182805461049690612226565b80156104e35780601f106104b8576101008083540402835291602001916104e3565b820191906000526020600020905b8154815290600101906020018083116104c657829003601f168201915b505050505093509850985098509850985098509850985050919395975091939597565b600060016000898152602001908152602001600020600001541461055f576040517f08c379a0000000000000000000000000000000000000000000000000000000008152600401610556906122c9565b60405180910390fd5b60405180610100016040528088815260200187815260200186815260200185815260200184815260200183815260200182815260200160011515815250600160008981526020019081526020016000206000820151816000015560208201518160010190816105ce9190612495565b5060408201518160020190816105e49190612495565b5060608201518160030190816105fa9190612495565b5060808201518160040190816106109190612495565b5060a0820151816005015560c0820151816006015560e08201518160070160006101000a81548160ff02191690831515021790555090505060008081548092919061065a90612596565b9190505550867fa4e56a429d7724cb4fcd3ee3caf47791673c74dbe2330b89a7df408dd0ecea4987878787876040516106979594939291906125de565b60405180910390a250505050505050565b60016020528060005260406000206000915090508060000154908060010180546106d190612226565b80601f01602080910402602001604051908101604052809291908181526020018280546106fd90612226565b801561074a5780601f1061071f5761010080835404028352916020019161074a565b820191906000526020600020905b81548152906001019060200180831161072d57829003601f168201915b50505050509080600201805461075f90612226565b80601f016020809104026020016040519081016040528092919081815260200182805461078b90612226565b80156107d85780601f106107ad576101008083540402835291602001916107d8565b820191906000526020600020905b8154815290600101906020018083116107bb57829003601f168201915b5050505050908060030180546107ed90612226565b80601f016020809104026020016040519081016040528092919081815260200182805461081990612226565b80156108665780601f1061083b57610100808354040283529160200191610866565b820191906000526020600020905b81548152906001019060200180831161084957829003601f168201915b50505050509080600401805461087b90612226565b80601f01602080910402602001604051908101604052809291908181526020018280546108a790612226565b80156108f45780601f106108c9576101008083540402835291602001916108f4565b820191906000526020600020905b8154815290600101906020018083116108d757829003601f168201915b5050505050908060050154908060060154908060070160009054906101000a900460ff16905088565b60005481565b6002602052816000526040600020818154811061093f57600080fd5b90600052602060002001600091509150505481565b60606000805467ffffffffffffffff81111561097357610972611b86565b5b6040519080825280602002602001820160405280156109ac57816020015b61099961196a565b8152602001906001900390816109915790505b50905060005b600054811015610c8d576001600082815260200190815260200160002060405180610100016040529081600082015481526020016001820180546109f590612226565b80601f0160208091040260200160405190810160405280929190818152602001828054610a2190612226565b8015610a6e5780601f10610a4357610100808354040283529160200191610a6e565b820191906000526020600020905b815481529060010190602001808311610a5157829003601f168201915b50505050508152602001600282018054610a8790612226565b80601f0160208091040260200160405190810160405280929190818152602001828054610ab390612226565b8015610b005780601f10610ad557610100808354040283529160200191610b00565b820191906000526020600020905b815481529060010190602001808311610ae357829003601f168201915b50505050508152602001600382018054610b1990612226565b80601f0160208091040260200160405190810160405280929190818152602001828054610b4590612226565b8015610b925780601f10610b6757610100808354040283529160200191610b92565b820191906000526020600020905b815481529060010190602001808311610b7557829003601f168201915b50505050508152602001600482018054610bab90612226565b80601f0160208091040260200160405190810160405280929190818152602001828054610bd790612226565b8015610c245780601f10610bf957610100808354040283529160200191610c24565b820191906000526020600020905b815481529060010190602001808311610c0757829003601f168201915b5050505050815260200160058201548152602001600682015481526020016007820160009054906101000a900460ff161515151581525050828281518110610c6f57610c6e61264d565b5b60200260200101819052508080610c8590612596565b9150506109b2565b508091505090565b60606000600260008473ffffffffffffffffffffffffffffffffffffffff1673ffffffffffffffffffffffffffffffffffffffff168152602001908152602001600020805480602002602001604051908101604052809291908181526020018280548015610d2257602002820191906000526020600020905b815481526020019060010190808311610d0e575b505050505090506000815167ffffffffffffffff811115610d4657610d45611b86565b5b604051908082528060200260200182016040528015610d7f57816020015b610d6c61196a565b815260200190600190039081610d645790505b50905060005b82518110156110795760016000848381518110610da557610da461264d565b5b602002602001015181526020019081526020016000206040518061010001604052908160008201548152602001600182018054610de190612226565b80601f0160208091040260200160405190810160405280929190818152602001828054610e0d90612226565b8015610e5a5780601f10610e2f57610100808354040283529160200191610e5a565b820191906000526020600020905b815481529060010190602001808311610e3d57829003601f168201915b50505050508152602001600282018054610e7390612226565b80601f0160208091040260200160405190810160405280929190818152602001828054610e9f90612226565b8015610eec5780601f10610ec157610100808354040283529160200191610eec565b820191906000526020600020905b815481529060010190602001808311610ecf57829003601f168201915b50505050508152602001600382018054610f0590612226565b80601f0160208091040260200160405190810160405280929190818152602001828054610f3190612226565b8015610f7e5780601f10610f5357610100808354040283529160200191610f7e565b820191906000526020600020905b815481529060010190602001808311610f6157829003601f168201915b50505050508152602001600482018054610f9790612226565b80601f0160208091040260200160405190810160405280929190818152602001828054610fc390612226565b80156110105780601f10610fe557610100808354040283529160200191611010565b820191906000526020600020905b815481529060010190602001808311610ff357829003601f168201915b5050505050815260200160058201548152602001600682015481526020016007820160009054906101000a900460ff16151515158152505082828151811061105b5761105a61264d565b5b6020026020010181905250808061107190612596565b915050610d85565b508092505050919050565b60606000600260008473ffffffffffffffffffffffffffffffffffffffff1673ffffffffffffffffffffffffffffffffffffffff16815260200190815260200160002080548060200260200160405190810160405280929190818152602001828054801561111157602002820191906000526020600020905b8154815260200190600101908083116110fd575b5050505050905080915050919050565b6111eb60016040518060600160405280602381526020016127e3602391396040518060400160405280601181526020017f477265656e4561727468204974616c69610000000000000000000000000000008152506040518060400160405280601c81526020017f696d616765732f7065746974696f6e732f706c61737469632e706e67000000008152506040518060400160405280600881526020017f416d6269656e74650000000000000000000000000000000000000000000000008152506132c86046610506565b611299600260405180606001604052806024815260200161277b602491396040518060400160405280600981526020017f596f7572566f696365000000000000000000000000000000000000000000000081525060405180606001604052806024815260200161289e602491396040518060400160405280600d81526020017f4469726974746920556d616e6900000000000000000000000000000000000000815250614e20611f40610506565b61134760036040518060600160405280602d815260200161282e602d91396040518060400160405280601281526020017f437275656c74794672656520426561757479000000000000000000000000000081525060405180606001604052806022815260200161279f602291396040518060400160405280600781526020017f416e696d616c6900000000000000000000000000000000000000000000000000815250611f40611f3f610506565b6113f56004604051806060016040528060288152602001612806602891396040518060400160405280601581526020017f466f6e64617a696f6e65205363756f6c6153616e6100000000000000000000008152506040518060600160405280602281526020016127c1602291396040518060400160405280601b81526020017f53616c757465204d656e74616c6520652049737472757a696f6e6500000000008152506127106102f6610506565b6114c060056040518060600160405280602281526020016128e6602291396040518060400160405280601881526020017f476c6f62616c204865616c746820496e697469617469766500000000000000008152506040518060400160405280601d81526020017f696d616765732f7065746974696f6e732f65706964656d69652e6a70670000008152506040518060400160405280600681526020017f53616c757465000000000000000000000000000000000000000000000000000081525061c350616d60610506565b61158a60066040518060600160405280602481526020016128c2602491396040518060400160405280601181526020017f426c7520436f72616c2050726f6a6563740000000000000000000000000000008152506040518060400160405280601f81526020017f696d616765732f7065746974696f6e732f636f72616c2d726565662e6a7067008152506040518060400160405280600881526020017f416d6269656e7465000000000000000000000000000000000000000000000000815250611b586005610506565b611655600760405180606001604052806022815260200161285b602291396040518060400160405280601d81526020017f5265746520646920536f737465676e6f207065722046616d69676c69650000008152506040518060400160405280601d81526020017f696d616765732f7065746974696f6e732f66616d69676c69652e706e670000008152506040518060400160405280600881526020017f46616d69676c6961000000000000000000000000000000000000000000000000815250614e206102da610506565b61171f600860405180606001604052806021815260200161287d602191396040518060400160405280601f81526020017f4173736f6369617a696f6e652043756c747572616c65204172746556697661008152506040518060400160405280601b81526020017f696d616765732f7065746974696f6e732f6d757365756d2e6a706700000000008152506040518060400160405280600781526020017f43756c7475726100000000000000000000000000000000000000000000000000815250611d4c6082610506565b565b60006001600083815260200190815260200160002090508060070160009054906101000a900460ff16611789576040517f08c379a0000000000000000000000000000000000000000000000000000000008152600401611780906126c8565b60405180910390fd5b61179333836118c8565b156117d3576040517f08c379a00000000000000000000000000000000000000000000000000000000081526004016117ca9061275a565b60405180910390fd5b8060060160008154809291906117e890612596565b9190505550600260003373ffffffffffffffffffffffffffffffffffffffff1673ffffffffffffffffffffffffffffffffffffffff16815260200190815260200160002082908060018154018082558091505060019003906000526020600020016000909190919091505580600501548160060154106118805760008160070160006101000a81548160ff0219169083151502179055505b813373ffffffffffffffffffffffffffffffffffffffff167f97bccb64fc76f86475b61b564523ef0e1c923f79f91bd77ed2cb06d2de5bc41360405160405180910390a35050565b600080600260008573ffffffffffffffffffffffffffffffffffffffff1673ffffffffffffffffffffffffffffffffffffffff168152602001908152602001600020905060005b818054905081101561195d578382828154811061192f5761192e61264d565b5b90600052602060002001540361194a57600192505050611964565b808061195590612596565b91505061190f565b5060009150505b92915050565b604051806101000160405280600081526020016060815260200160608152602001606081526020016060815260200160008152602001600081526020016000151581525090565b6000604051905090565b600080fd5b600080fd5b6000819050919050565b6119d8816119c5565b81146119e357600080fd5b50565b6000813590506119f5816119cf565b92915050565b600060208284031215611a1157611a106119bb565b5b6000611a1f848285016119e6565b91505092915050565b611a31816119c5565b82525050565b600081519050919050565b600082825260208201905092915050565b60005b83811015611a71578082015181840152602081019050611a56565b60008484015250505050565b6000601f19601f8301169050919050565b6000611a9982611a37565b611aa38185611a42565b9350611ab3818560208601611a53565b611abc81611a7d565b840191505092915050565b60008115159050919050565b611adc81611ac7565b82525050565b600061010082019050611af8600083018b611a28565b8181036020830152611b0a818a611a8e565b90508181036040830152611b1e8189611a8e565b90508181036060830152611b328188611a8e565b90508181036080830152611b468187611a8e565b9050611b5560a0830186611a28565b611b6260c0830185611a28565b611b6f60e0830184611ad3565b9998505050505050505050565b600080fd5b600080fd5b7f4e487b7100000000000000000000000000000000000000000000000000000000600052604160045260246000fd5b611bbe82611a7d565b810181811067ffffffffffffffff82111715611bdd57611bdc611b86565b5b80604052505050565b6000611bf06119b1565b9050611bfc8282611bb5565b919050565b600067ffffffffffffffff821115611c1c57611c1b611b86565b5b611c2582611a7d565b9050602081019050919050565b82818337600083830152505050565b6000611c54611c4f84611c01565b611be6565b905082815260208101848484011115611c7057611c6f611b81565b5b611c7b848285611c32565b509392505050565b600082601f830112611c9857611c97611b7c565b5b8135611ca8848260208601611c41565b91505092915050565b600080600080600080600060e0888a031215611cd057611ccf6119bb565b5b6000611cde8a828b016119e6565b975050602088013567ffffffffffffffff811115611cff57611cfe6119c0565b5b611d0b8a828b01611c83565b965050604088013567ffffffffffffffff811115611d2c57611d2b6119c0565b5b611d388a828b01611c83565b955050606088013567ffffffffffffffff811115611d5957611d586119c0565b5b611d658a828b01611c83565b945050608088013567ffffffffffffffff811115611d8657611d856119c0565b5b611d928a828b01611c83565b93505060a0611da38a828b016119e6565b92505060c0611db48a828b016119e6565b91505092959891949750929550565b6000602082019050611dd86000830184611a28565b92915050565b600073ffffffffffffffffffffffffffffffffffffffff82169050919050565b6000611e0982611dde565b9050919050565b611e1981611dfe565b8114611e2457600080fd5b50565b600081359050611e3681611e10565b92915050565b60008060408385031215611e5357611e526119bb565b5b6000611e6185828601611e27565b9250506020611e72858286016119e6565b9150509250929050565b600081519050919050565b600082825260208201905092915050565b6000819050602082019050919050565b611eb1816119c5565b82525050565b600082825260208201905092915050565b6000611ed382611a37565b611edd8185611eb7565b9350611eed818560208601611a53565b611ef681611a7d565b840191505092915050565b611f0a81611ac7565b82525050565b600061010083016000830151611f296000860182611ea8565b5060208301518482036020860152611f418282611ec8565b91505060408301518482036040860152611f5b8282611ec8565b91505060608301518482036060860152611f758282611ec8565b91505060808301518482036080860152611f8f8282611ec8565b91505060a0830151611fa460a0860182611ea8565b5060c0830151611fb760c0860182611ea8565b5060e0830151611fca60e0860182611f01565b508091505092915050565b6000611fe18383611f10565b905092915050565b6000602082019050919050565b600061200182611e7c565b61200b8185611e87565b93508360208202850161201d85611e98565b8060005b85811015612059578484038952815161203a8582611fd5565b945061204583611fe9565b925060208a01995050600181019050612021565b50829750879550505050505092915050565b600060208201905081810360008301526120858184611ff6565b905092915050565b6000602082840312156120a3576120a26119bb565b5b60006120b184828501611e27565b91505092915050565b600081519050919050565b600082825260208201905092915050565b6000819050602082019050919050565b60006120f28383611ea8565b60208301905092915050565b6000602082019050919050565b6000612116826120ba565b61212081856120c5565b935061212b836120d6565b8060005b8381101561215c57815161214388826120e6565b975061214e836120fe565b92505060018101905061212f565b5085935050505092915050565b60006020820190508181036000830152612183818461210b565b905092915050565b7f5065746974696f6e20646f6573206e6f74206578697374000000000000000000600082015250565b60006121c1601783611a42565b91506121cc8261218b565b602082019050919050565b600060208201905081810360008301526121f0816121b4565b9050919050565b7f4e487b7100000000000000000000000000000000000000000000000000000000600052602260045260246000fd5b6000600282049050600182168061223e57607f821691505b602082108103612251576122506121f7565b5b50919050565b7f5065746974696f6e20776974682073616d6520494420616c726561647920657860008201527f6973747300000000000000000000000000000000000000000000000000000000602082015250565b60006122b3602483611a42565b91506122be82612257565b604082019050919050565b600060208201905081810360008301526122e2816122a6565b9050919050565b60008190508160005260206000209050919050565b60006020601f8301049050919050565b600082821b905092915050565b60006008830261234b7fffffffffffffffffffffffffffffffffffffffffffffffffffffffffffffffff8261230e565b612355868361230e565b95508019841693508086168417925050509392505050565b6000819050919050565b600061239261238d612388846119c5565b61236d565b6119c5565b9050919050565b6000819050919050565b6123ac83612377565b6123c06123b882612399565b84845461231b565b825550505050565b600090565b6123d56123c8565b6123e08184846123a3565b505050565b5b81811015612404576123f96000826123cd565b6001810190506123e6565b5050565b601f8211156124495761241a816122e9565b612423846122fe565b81016020851015612432578190505b61244661243e856122fe565b8301826123e5565b50505b505050565b600082821c905092915050565b600061246c6000198460080261244e565b1980831691505092915050565b6000612485838361245b565b9150826002028217905092915050565b61249e82611a37565b67ffffffffffffffff8111156124b7576124b6611b86565b5b6124c18254612226565b6124cc828285612408565b600060209050601f8311600181146124ff57600084156124ed578287015190505b6124f78582612479565b86555061255f565b601f19841661250d866122e9565b60005b8281101561253557848901518255600182019150602085019450602081019050612510565b86831015612552578489015161254e601f89168261245b565b8355505b6001600288020188555050505b505050505050565b7f4e487b7100000000000000000000000000000000000000000000000000000000600052601160045260246000fd5b60006125a1826119c5565b91507fffffffffffffffffffffffffffffffffffffffffffffffffffffffffffffffff82036125d3576125d2612567565b5b600182019050919050565b600060a08201905081810360008301526125f88188611a8e565b9050818103602083015261260c8187611a8e565b905081810360408301526126208186611a8e565b905081810360608301526126348185611a8e565b90506126436080830184611a28565b9695505050505050565b7f4e487b7100000000000000000000000000000000000000000000000000000000600052603260045260246000fd5b7f5065746974696f6e206973206e6f742061637469766500000000000000000000600082015250565b60006126b2601683611a42565b91506126bd8261267c565b602082019050919050565b600060208201905081810360008301526126e1816126a5565b9050919050565b7f596f75206861766520616c7265616479207369676e656420746869732070657460008201527f6974696f6e000000000000000000000000000000000000000000000000000000602082015250565b6000612744602583611a42565b915061274f826126e8565b604082019050919050565b6000602082019050818103600083015261277381612737565b905091905056fe53746f7020616c6c65206469736372696d696e617a696f6e692073756c206c61766f726f696d616765732f7065746974696f6e732f74657374636f736d65746963692e6a7067696d616765732f7065746974696f6e732f73616c7574656d656e74616c652e6a7067426173746120706c617374696361206d6f6e6f75736f3a20416769616d6f204f726121536f7374656e69616d6f206c612073616c757465206d656e74616c652073747564656e74657363614e6f206169205465737420737520416e696d616c693a20436f736d657469636920437275656c74792d467265654169757469616d6f206c652066616d69676c6965206d6f6e6f706172656e74616c69417274652073656e7a612062617272696572653a204d7573656920677261746973696d616765732f7065746974696f6e732f6469736372696d696e617a696f6e652e6a706753616c7669616d6f2069206e6f737472692065636f73697374656d69206d6172696e692150726576656e7a696f6e652064656c6c652065706964656d696520676c6f62616c69a2646970667358221220f9ca9a5aef492dd11531092a4f86dbd16b6d9b6080b356f7c7e245696fb5e2cc64736f6c6343000813003353746f7020616c6c65206469736372696d696e617a696f6e692073756c206c61766f726f696d616765732f7065746974696f6e732f74657374636f736d65746963692e6a7067696d616765732f7065746974696f6e732f73616c7574656d656e74616c652e6a7067426173746120706c617374696361206d6f6e6f75736f3a20416769616d6f204f726121536f7374656e69616d6f206c612073616c757465206d656e74616c652073747564656e74657363614e6f206169205465737420737520416e696d616c693a20436f736d657469636920437275656c74792d467265654169757469616d6f206c652066616d69676c6965206d6f6e6f706172656e74616c69417274652073656e7a612062617272696572653a204d7573656920677261746973696d616765732f7065746974696f6e732f6469736372696d696e617a696f6e652e6a706753616c7669616d6f2069206e6f737472692065636f73697374656d69206d6172696e692150726576656e7a696f6e652064656c6c652065706964656d696520676c6f62616c69",
  "immutableReferences": {},
  "source": "// SPDX-License-Identifier: MIT\npragma solidity ^0.8.0;\n\ncontract PetitionContract {\n     uint public counterPetition;\n\n    // Definizione della struttura della petizione\n    struct Petition {\n        uint id;\n        string title;\n        string organizer;\n        string img;\n        string category; \n        uint targetSignatures;\n        uint numSignatures;\n        bool isActive;\n    }\n\n    // Mapping degli ID delle petizioni alle loro struct Petition\n    mapping(uint => Petition) public petitions;\n\n    // Mapping degli indirizzi che hanno firmato petizioni agli ID delle petizioni firmate\n    mapping(address => uint[]) public signedPetitions;\n\n    // Evento emesso quando una petizione viene firmata\n    event PetitionSigned(address indexed signer, uint indexed petitionId);\n    //Evento emesso quando una petizione viene creata\n    event PetitionCreated(uint indexed id, string title, string organizer, string img, \n    string category, uint targetSignatures );\n\n\n    constructor() {\n    \tcounterPetition=0;\n        loadPetition();\n    }\n   \n    function loadPetition() public {\n        createPetition(1,\"Basta plastica monouso: Agiamo Ora!\",\"GreenEarth Italia\", \"images/petitions/plastic.png\", \"Ambiente\", 13000,70);\n        createPetition(2,\"Stop alle discriminazioni sul lavoro\",\"YourVoice\",\"images/petitions/discriminazione.jpg\", \"Diritti Umani\", 20000,8000);\n        createPetition(3,\"No ai Test su Animali: Cosmetici Cruelty-Free\",\"CrueltyFree Beauty\",\"images/petitions/testcosmetici.jpg\", \"Animali\", 8000,7999);\n        createPetition(4,\"Sosteniamo la salute mentale studentesca\",\"Fondazione ScuolaSana\",\"images/petitions/salutementale.jpg\", \"Salute Mentale e Istruzione\", 10000,758);\n        createPetition(5,\"Prevenzione delle epidemie globali\",\"Global Health Initiative\",\"images/petitions/epidemie.jpg\", \"Salute\", 50000,28000);\n        createPetition(6,\"Salviamo i nostri ecosistemi marini!\",\"Blu Coral Project\",\"images/petitions/coral-reef.jpg\", \"Ambiente\", 7000,5);\n        createPetition(7,\"Aiutiamo le famiglie monoparentali\",\"Rete di Sostegno per Famiglie\",\"images/petitions/famiglie.png\", \"Famiglia\", 20000,730);\n        createPetition(8,\"Arte senza barriere: Musei gratis\",\"Associazione Culturale ArteViva\",\"images/petitions/museum.jpg\", \"Cultura\", 7500,130);    \n    }\n   \n    // Funzione per creare una nuova petizione\n    function createPetition(\n        uint id, \n        string memory title,\n        string memory organizer,\n        string memory img,\n        string memory category, \n        uint targetSignatures, \n        uint numSignatures\n    ) public {\n        require(petitions[id].id == 0, \"Petition with same ID already exists\"); // Verifica se esiste gi una petizione con lo stesso ID\n\n        petitions[id] = Petition(\n            id,\n            title,\n            organizer,\n            img,\n            category,\n            targetSignatures,\n            numSignatures,\n            true\n        );\n        counterPetition++;\n        // Emetti l'evento PetitionCreated\n        emit PetitionCreated(id, title, organizer, img, category, targetSignatures);\n    }\n\n    // Funzione per ottenere i dettagli di una petizione\n    function getPetitionDetails(uint petitionId) public view returns (\n        uint id,\n        string memory title,\n        string memory organizer,\n        string memory img,\n        string memory category, \n        uint targetSignatures,\n        uint numSignatures,\n        bool isActive\n    ) {\n        Petition storage petition = petitions[petitionId];\n        require(petition.id != 0, \"Petition does not exist\"); // Verifica se la petizione esiste\n        return (\n            petition.id,\n            petition.title,\n            petition.organizer,\n            petition.img,\n            petition.category,\n            petition.targetSignatures,\n            petition.numSignatures,\n            petition.isActive\n        );\n    }\n\n    // Funzione per firmare una petizione\n    function signPetition(uint petitionId) public {\n        Petition storage petition = petitions[petitionId];\n        require(petition.isActive, \"Petition is not active\");\n\n        // Controllo per verificare se l'utente ha gi firmato\n        require(!hasSignedPetition(msg.sender, petitionId), \"You have already signed this petition\");\n\n        petition.numSignatures++;\n        signedPetitions[msg.sender].push(petitionId);\n\n        if (petition.numSignatures >= petition.targetSignatures) {\n            petition.isActive = false;\n        }\n        emit PetitionSigned(msg.sender, petitionId);\n    }\n\n    // Funzione per verificare se un utente ha gi firmato una petizione\n    function hasSignedPetition(address signer, uint petitionId) internal view returns (bool) {\n        uint[] storage signedIds = signedPetitions[signer];\n        for (uint i = 0; i < signedIds.length; i++) {\n            if (signedIds[i] == petitionId) {\n                return true;\n            }\n        }\n        return false;\n    }\n    \n    //Funzione per ottenere tutte le petizioni\n    function getAllPetitions() public view returns (Petition[] memory) {\n    \tPetition[] memory result = new Petition[](counterPetition);\n    \tfor (uint i = 0; i < counterPetition; i++) {\n      \t    result[i] = petitions[i];\n    \t}\n\n    return result;\n    }\t\n    \n    // Funzione per ottenere gli ID delle petizioni firmate da un determinato indirizzo\n    function getSignedPetitionIds(address signer) public view returns (uint[] memory) {\n    \tuint[] memory signedIds = signedPetitions[signer];\n    \treturn signedIds;\n    }\n\n    \n\n    // Funzione per ottenere le petizioni firmate da un determinato indirizzo\n    function getSignedPetitions(address signer) public view returns (Petition[] memory) {\n        uint[] memory signedIds = signedPetitions[signer];\n        Petition[] memory signedPetitionsArray = new Petition[](signedIds.length);\n\n        for (uint i = 0; i < signedIds.length; i++) {\n            signedPetitionsArray[i] = petitions[signedIds[i]];\n        }\n        return signedPetitionsArray;\n    }\n}\n",
  "sourcePath": "/home/studente/Desktop/Petition_dApp/contracts/PetitionContract.sol",
  "compiler": {
    "name": "solc",
    "version": "0.8.19+commit.7dd6d404.Emscripten.clang"
  },
  "schemaVersion": "3.4.3",
  "updatedAt": "2023-11-07T14:39:14.697Z",
  "networkType": "ethereum",
  "devdoc": {
    "kind": "dev",
    "methods": {},
    "version": 1
  },
  "userdoc": {
    "kind": "user",
    "methods": {},
    "version": 1
  }
}