{
  "contractName": "Petition",
  "abi": [
    {
      "inputs": [],
      "stateMutability": "nonpayable",
      "type": "constructor"
    },
    {
      "anonymous": false,
      "inputs": [
        {
          "indexed": true,
          "internalType": "address",
          "name": "signer",
          "type": "address"
        },
        {
          "indexed": true,
          "internalType": "uint256",
          "name": "petitionId",
          "type": "uint256"
        }
      ],
      "name": "PetitionSigned",
      "type": "event"
    },
    {
      "inputs": [
        {
          "internalType": "uint256",
          "name": "",
          "type": "uint256"
        }
      ],
      "name": "petitions",
      "outputs": [
        {
          "internalType": "uint256",
          "name": "id",
          "type": "uint256"
        },
        {
          "internalType": "string",
          "name": "title",
          "type": "string"
        },
        {
          "internalType": "string",
          "name": "organizer",
          "type": "string"
        },
        {
          "internalType": "string",
          "name": "description",
          "type": "string"
        },
        {
          "internalType": "string",
          "name": "category",
          "type": "string"
        },
        {
          "internalType": "uint256",
          "name": "targetSignatures",
          "type": "uint256"
        },
        {
          "internalType": "uint256",
          "name": "numSignatures",
          "type": "uint256"
        },
        {
          "internalType": "bool",
          "name": "isActive",
          "type": "bool"
        }
      ],
      "stateMutability": "view",
      "type": "function"
    },
    {
      "inputs": [
        {
          "internalType": "address",
          "name": "",
          "type": "address"
        },
        {
          "internalType": "uint256",
          "name": "",
          "type": "uint256"
        }
      ],
      "name": "signedPetitions",
      "outputs": [
        {
          "internalType": "uint256",
          "name": "",
          "type": "uint256"
        }
      ],
      "stateMutability": "view",
      "type": "function"
    },
    {
      "inputs": [
        {
          "internalType": "uint256",
          "name": "id",
          "type": "uint256"
        },
        {
          "internalType": "string",
          "name": "title",
          "type": "string"
        },
        {
          "internalType": "string",
          "name": "organizer",
          "type": "string"
        },
        {
          "internalType": "string",
          "name": "description",
          "type": "string"
        },
        {
          "internalType": "string",
          "name": "category",
          "type": "string"
        },
        {
          "internalType": "uint256",
          "name": "targetSignatures",
          "type": "uint256"
        },
        {
          "internalType": "uint256",
          "name": "numSignatures",
          "type": "uint256"
        }
      ],
      "name": "createPetition",
      "outputs": [],
      "stateMutability": "nonpayable",
      "type": "function"
    },
    {
      "inputs": [
        {
          "internalType": "uint256",
          "name": "petitionId",
          "type": "uint256"
        }
      ],
      "name": "getPetitionDetails",
      "outputs": [
        {
          "internalType": "uint256",
          "name": "id",
          "type": "uint256"
        },
        {
          "internalType": "string",
          "name": "title",
          "type": "string"
        },
        {
          "internalType": "string",
          "name": "organizer",
          "type": "string"
        },
        {
          "internalType": "string",
          "name": "description",
          "type": "string"
        },
        {
          "internalType": "string",
          "name": "category",
          "type": "string"
        },
        {
          "internalType": "uint256",
          "name": "targetSignatures",
          "type": "uint256"
        },
        {
          "internalType": "uint256",
          "name": "numSignatures",
          "type": "uint256"
        },
        {
          "internalType": "bool",
          "name": "isActive",
          "type": "bool"
        }
      ],
      "stateMutability": "view",
      "type": "function"
    },
    {
      "inputs": [
        {
          "internalType": "uint256",
          "name": "petitionId",
          "type": "uint256"
        }
      ],
      "name": "signPetition",
      "outputs": [],
      "stateMutability": "nonpayable",
      "type": "function"
    },
    {
      "inputs": [
        {
          "internalType": "address",
          "name": "signer",
          "type": "address"
        }
      ],
      "name": "getSignedPetitions",
      "outputs": [
        {
          "components": [
            {
              "internalType": "uint256",
              "name": "id",
              "type": "uint256"
            },
            {
              "internalType": "string",
              "name": "title",
              "type": "string"
            },
            {
              "internalType": "string",
              "name": "organizer",
              "type": "string"
            },
            {
              "internalType": "string",
              "name": "description",
              "type": "string"
            },
            {
              "internalType": "string",
              "name": "category",
              "type": "string"
            },
            {
              "internalType": "uint256",
              "name": "targetSignatures",
              "type": "uint256"
            },
            {
              "internalType": "uint256",
              "name": "numSignatures",
              "type": "uint256"
            },
            {
              "internalType": "bool",
              "name": "isActive",
              "type": "bool"
            }
          ],
          "internalType": "struct Petition.Petition[]",
          "name": "",
          "type": "tuple[]"
        }
      ],
      "stateMutability": "view",
      "type": "function"
    }
  ],
  "bytecode": "0x608060405234801561000f575f80fd5b50611ac18061001d5f395ff3fe608060405234801561000f575f80fd5b5060043610610060575f3560e01c8063040a901714610064578063063e02631461009b5780633ad50ded146100b75780636092da4c146100ee578063a012284a1461011e578063dcad01801461014e575b5f80fd5b61007e60048036038101906100799190610ea7565b61016a565b604051610092989796959493929190610f85565b60405180910390f35b6100b560048036038101906100b09190611149565b61043f565b005b6100d160048036038101906100cc9190610ea7565b61057f565b6040516100e5989796959493929190610f85565b60405180910390f35b610108600480360381019061010391906112b0565b6107e6565b60405161011591906112ee565b60405180910390f35b61013860048036038101906101339190611307565b610811565b6040516101459190611515565b60405180910390f35b61016860048036038101906101639190610ea7565b610bec565b005b5f6060806060805f805f805f808b81526020019081526020015f2090505f815f0154036101cc576040517f08c379a00000000000000000000000000000000000000000000000000000000081526004016101c39061157f565b60405180910390fd5b805f01548160010182600201836003018460040185600501548660060154876007015f9054906101000a900460ff16868054610207906115ca565b80601f0160208091040260200160405190810160405280929190818152602001828054610233906115ca565b801561027e5780601f106102555761010080835404028352916020019161027e565b820191905f5260205f20905b81548152906001019060200180831161026157829003601f168201915b50505050509650858054610291906115ca565b80601f01602080910402602001604051908101604052809291908181526020018280546102bd906115ca565b80156103085780601f106102df57610100808354040283529160200191610308565b820191905f5260205f20905b8154815290600101906020018083116102eb57829003601f168201915b5050505050955084805461031b906115ca565b80601f0160208091040260200160405190810160405280929190818152602001828054610347906115ca565b80156103925780601f1061036957610100808354040283529160200191610392565b820191905f5260205f20905b81548152906001019060200180831161037557829003601f168201915b505050505094508380546103a5906115ca565b80601f01602080910402602001604051908101604052809291908181526020018280546103d1906115ca565b801561041c5780601f106103f35761010080835404028352916020019161041c565b820191905f5260205f20905b8154815290600101906020018083116103ff57829003601f168201915b505050505093509850985098509850985098509850985050919395975091939597565b5f805f8981526020019081526020015f205f015414610493576040517f08c379a000000000000000000000000000000000000000000000000000000000815260040161048a9061166a565b60405180910390fd5b604051806101000160405280888152602001878152602001868152602001858152602001848152602001838152602001828152602001600115158152505f808981526020019081526020015f205f820151815f015560208201518160010190816104fd9190611825565b5060408201518160020190816105139190611825565b5060608201518160030190816105299190611825565b50608082015181600401908161053f9190611825565b5060a0820151816005015560c0820151816006015560e0820151816007015f6101000a81548160ff02191690831515021790555090505050505050505050565b5f602052805f5260405f205f91509050805f0154908060010180546105a3906115ca565b80601f01602080910402602001604051908101604052809291908181526020018280546105cf906115ca565b801561061a5780601f106105f15761010080835404028352916020019161061a565b820191905f5260205f20905b8154815290600101906020018083116105fd57829003601f168201915b50505050509080600201805461062f906115ca565b80601f016020809104026020016040519081016040528092919081815260200182805461065b906115ca565b80156106a65780601f1061067d576101008083540402835291602001916106a6565b820191905f5260205f20905b81548152906001019060200180831161068957829003601f168201915b5050505050908060030180546106bb906115ca565b80601f01602080910402602001604051908101604052809291908181526020018280546106e7906115ca565b80156107325780601f1061070957610100808354040283529160200191610732565b820191905f5260205f20905b81548152906001019060200180831161071557829003601f168201915b505050505090806004018054610747906115ca565b80601f0160208091040260200160405190810160405280929190818152602001828054610773906115ca565b80156107be5780601f10610795576101008083540402835291602001916107be565b820191905f5260205f20905b8154815290600101906020018083116107a157829003601f168201915b505050505090806005015490806006015490806007015f9054906101000a900460ff16905088565b6001602052815f5260405f2081815481106107ff575f80fd5b905f5260205f20015f91509150505481565b60605f60015f8473ffffffffffffffffffffffffffffffffffffffff1673ffffffffffffffffffffffffffffffffffffffff1681526020019081526020015f2080548060200260200160405190810160405280929190818152602001828054801561089957602002820191905f5260205f20905b815481526020019060010190808311610885575b505050505090505f815167ffffffffffffffff8111156108bc576108bb611025565b5b6040519080825280602002602001820160405280156108f557816020015b6108e2610e20565b8152602001906001900390816108da5790505b5090505f5b8251811015610be1575f80848381518110610918576109176118f4565b5b602002602001015181526020019081526020015f20604051806101000160405290815f8201548152602001600182018054610952906115ca565b80601f016020809104026020016040519081016040528092919081815260200182805461097e906115ca565b80156109c95780601f106109a0576101008083540402835291602001916109c9565b820191905f5260205f20905b8154815290600101906020018083116109ac57829003601f168201915b505050505081526020016002820180546109e2906115ca565b80601f0160208091040260200160405190810160405280929190818152602001828054610a0e906115ca565b8015610a595780601f10610a3057610100808354040283529160200191610a59565b820191905f5260205f20905b815481529060010190602001808311610a3c57829003601f168201915b50505050508152602001600382018054610a72906115ca565b80601f0160208091040260200160405190810160405280929190818152602001828054610a9e906115ca565b8015610ae95780601f10610ac057610100808354040283529160200191610ae9565b820191905f5260205f20905b815481529060010190602001808311610acc57829003601f168201915b50505050508152602001600482018054610b02906115ca565b80601f0160208091040260200160405190810160405280929190818152602001828054610b2e906115ca565b8015610b795780601f10610b5057610100808354040283529160200191610b79565b820191905f5260205f20905b815481529060010190602001808311610b5c57829003601f168201915b505050505081526020016005820154815260200160068201548152602001600782015f9054906101000a900460ff161515151581525050828281518110610bc357610bc26118f4565b5b60200260200101819052508080610bd99061194e565b9150506108fa565b508092505050919050565b5f805f8381526020019081526020015f209050806007015f9054906101000a900460ff16610c4f576040517f08c379a0000000000000000000000000000000000000000000000000000000008152600401610c46906119df565b60405180910390fd5b610c593383610d85565b610c98576040517f08c379a0000000000000000000000000000000000000000000000000000000008152600401610c8f90611a6d565b60405180910390fd5b806006015f815480929190610cac9061194e565b919050555060015f3373ffffffffffffffffffffffffffffffffffffffff1673ffffffffffffffffffffffffffffffffffffffff1681526020019081526020015f2082908060018154018082558091505060019003905f5260205f20015f90919091909150558060050154816006015410610d3d575f816007015f6101000a81548160ff0219169083151502179055505b813373ffffffffffffffffffffffffffffffffffffffff167f97bccb64fc76f86475b61b564523ef0e1c923f79f91bd77ed2cb06d2de5bc41360405160405180910390a35050565b5f8060015f8573ffffffffffffffffffffffffffffffffffffffff1673ffffffffffffffffffffffffffffffffffffffff1681526020019081526020015f2090505f5b8180549050811015610e145783828281548110610de857610de76118f4565b5b905f5260205f20015403610e0157600192505050610e1a565b8080610e0c9061194e565b915050610dc8565b505f9150505b92915050565b6040518061010001604052805f8152602001606081526020016060815260200160608152602001606081526020015f81526020015f81526020015f151581525090565b5f604051905090565b5f80fd5b5f80fd5b5f819050919050565b610e8681610e74565b8114610e90575f80fd5b50565b5f81359050610ea181610e7d565b92915050565b5f60208284031215610ebc57610ebb610e6c565b5b5f610ec984828501610e93565b91505092915050565b610edb81610e74565b82525050565b5f81519050919050565b5f82825260208201905092915050565b5f5b83811015610f18578082015181840152602081019050610efd565b5f8484015250505050565b5f601f19601f8301169050919050565b5f610f3d82610ee1565b610f478185610eeb565b9350610f57818560208601610efb565b610f6081610f23565b840191505092915050565b5f8115159050919050565b610f7f81610f6b565b82525050565b5f61010082019050610f995f83018b610ed2565b8181036020830152610fab818a610f33565b90508181036040830152610fbf8189610f33565b90508181036060830152610fd38188610f33565b90508181036080830152610fe78187610f33565b9050610ff660a0830186610ed2565b61100360c0830185610ed2565b61101060e0830184610f76565b9998505050505050505050565b5f80fd5b5f80fd5b7f4e487b71000000000000000000000000000000000000000000000000000000005f52604160045260245ffd5b61105b82610f23565b810181811067ffffffffffffffff8211171561107a57611079611025565b5b80604052505050565b5f61108c610e63565b90506110988282611052565b919050565b5f67ffffffffffffffff8211156110b7576110b6611025565b5b6110c082610f23565b9050602081019050919050565b828183375f83830152505050565b5f6110ed6110e88461109d565b611083565b90508281526020810184848401111561110957611108611021565b5b6111148482856110cd565b509392505050565b5f82601f8301126111305761112f61101d565b5b81356111408482602086016110db565b91505092915050565b5f805f805f805f60e0888a03121561116457611163610e6c565b5b5f6111718a828b01610e93565b975050602088013567ffffffffffffffff81111561119257611191610e70565b5b61119e8a828b0161111c565b965050604088013567ffffffffffffffff8111156111bf576111be610e70565b5b6111cb8a828b0161111c565b955050606088013567ffffffffffffffff8111156111ec576111eb610e70565b5b6111f88a828b0161111c565b945050608088013567ffffffffffffffff81111561121957611218610e70565b5b6112258a828b0161111c565b93505060a06112368a828b01610e93565b92505060c06112478a828b01610e93565b91505092959891949750929550565b5f73ffffffffffffffffffffffffffffffffffffffff82169050919050565b5f61127f82611256565b9050919050565b61128f81611275565b8114611299575f80fd5b50565b5f813590506112aa81611286565b92915050565b5f80604083850312156112c6576112c5610e6c565b5b5f6112d38582860161129c565b92505060206112e485828601610e93565b9150509250929050565b5f6020820190506113015f830184610ed2565b92915050565b5f6020828403121561131c5761131b610e6c565b5b5f6113298482850161129c565b91505092915050565b5f81519050919050565b5f82825260208201905092915050565b5f819050602082019050919050565b61136481610e74565b82525050565b5f82825260208201905092915050565b5f61138482610ee1565b61138e818561136a565b935061139e818560208601610efb565b6113a781610f23565b840191505092915050565b6113bb81610f6b565b82525050565b5f61010083015f8301516113d75f86018261135b565b50602083015184820360208601526113ef828261137a565b91505060408301518482036040860152611409828261137a565b91505060608301518482036060860152611423828261137a565b9150506080830151848203608086015261143d828261137a565b91505060a083015161145260a086018261135b565b5060c083015161146560c086018261135b565b5060e083015161147860e08601826113b2565b508091505092915050565b5f61148e83836113c1565b905092915050565b5f602082019050919050565b5f6114ac82611332565b6114b6818561133c565b9350836020820285016114c88561134c565b805f5b8581101561150357848403895281516114e48582611483565b94506114ef83611496565b925060208a019950506001810190506114cb565b50829750879550505050505092915050565b5f6020820190508181035f83015261152d81846114a2565b905092915050565b7f5065746974696f6e20646f6573206e6f742065786973740000000000000000005f82015250565b5f611569601783610eeb565b915061157482611535565b602082019050919050565b5f6020820190508181035f8301526115968161155d565b9050919050565b7f4e487b71000000000000000000000000000000000000000000000000000000005f52602260045260245ffd5b5f60028204905060018216806115e157607f821691505b6020821081036115f4576115f361159d565b5b50919050565b7f5065746974696f6e20776974682073616d6520494420616c72656164792065785f8201527f6973747300000000000000000000000000000000000000000000000000000000602082015250565b5f611654602483610eeb565b915061165f826115fa565b604082019050919050565b5f6020820190508181035f83015261168181611648565b9050919050565b5f819050815f5260205f209050919050565b5f6020601f8301049050919050565b5f82821b905092915050565b5f600883026116e47fffffffffffffffffffffffffffffffffffffffffffffffffffffffffffffffff826116a9565b6116ee86836116a9565b95508019841693508086168417925050509392505050565b5f819050919050565b5f61172961172461171f84610e74565b611706565b610e74565b9050919050565b5f819050919050565b6117428361170f565b61175661174e82611730565b8484546116b5565b825550505050565b5f90565b61176a61175e565b611775818484611739565b505050565b5b818110156117985761178d5f82611762565b60018101905061177b565b5050565b601f8211156117dd576117ae81611688565b6117b78461169a565b810160208510156117c6578190505b6117da6117d28561169a565b83018261177a565b50505b505050565b5f82821c905092915050565b5f6117fd5f19846008026117e2565b1980831691505092915050565b5f61181583836117ee565b9150826002028217905092915050565b61182e82610ee1565b67ffffffffffffffff81111561184757611846611025565b5b61185182546115ca565b61185c82828561179c565b5f60209050601f83116001811461188d575f841561187b578287015190505b611885858261180a565b8655506118ec565b601f19841661189b86611688565b5f5b828110156118c25784890151825560018201915060208501945060208101905061189d565b868310156118df57848901516118db601f8916826117ee565b8355505b6001600288020188555050505b505050505050565b7f4e487b71000000000000000000000000000000000000000000000000000000005f52603260045260245ffd5b7f4e487b71000000000000000000000000000000000000000000000000000000005f52601160045260245ffd5b5f61195882610e74565b91507fffffffffffffffffffffffffffffffffffffffffffffffffffffffffffffffff820361198a57611989611921565b5b600182019050919050565b7f5065746974696f6e206973206e6f7420616374697665000000000000000000005f82015250565b5f6119c9601683610eeb565b91506119d482611995565b602082019050919050565b5f6020820190508181035f8301526119f6816119bd565b9050919050565b7f596f75206861766520616c7265616479207369676e65642074686973207065745f8201527f6974696f6e000000000000000000000000000000000000000000000000000000602082015250565b5f611a57602583610eeb565b9150611a62826119fd565b604082019050919050565b5f6020820190508181035f830152611a8481611a4b565b905091905056fea2646970667358221220a19bf07f126853d6a25a28b29f070b71572f484a65620b644c2949e5ea3f288c64736f6c63430008150033",
  "immutableReferences": {},
  "source": "// SPDX-License-Identifier: MIT\npragma solidity ^0.8.0;\n\ncontract Petition {\n\n    // Definizione della struttura della petizione\n    struct Petition {\n        uint id;\n        string title;\n        string organizer;\n        string description;\n        string category; \n        uint targetSignatures;\n        uint numSignatures;\n        bool isActive;\n    }\n\n    // Mappatura degli ID delle petizioni alla loro struttura\n    mapping(uint => Petition) public petitions;\n\n    // Mappatura degli indirizzi che hanno firmato petizioni agli ID delle petizioni firmate\n    mapping(address => uint[]) public signedPetitions;\n\n   constructor() {}\n   \n    // Evento emesso quando una petizione viene firmata\n    event PetitionSigned(address indexed signer, uint indexed petitionId);\n   \n    // Funzione per creare una nuova petizione\n    function createPetition(\n        uint id, // Nuovo parametro ID\n        string memory title,\n        string memory organizer,\n        string memory description,\n        string memory category, \n        uint targetSignatures, \n        uint numSignatures\n    ) public {\n        require(petitions[id].id == 0, \"Petition with same ID already exists\"); // Verifica se esiste gi una petizione con lo stesso ID\n\n        petitions[id] = Petition(\n            id,\n            title,\n            organizer,\n            description,\n            category,\n            targetSignatures,\n            numSignatures,\n            true\n        );\n\n    }\n\n    // Funzione per ottenere i dettagli di una petizione\n    function getPetitionDetails(uint petitionId) public view returns (\n        uint id,\n        string memory title,\n        string memory organizer,\n        string memory description,\n        string memory category, \n        uint targetSignatures,\n        uint numSignatures,\n        bool isActive\n    ) {\n        Petition storage petition = petitions[petitionId];\n        require(petition.id != 0, \"Petition does not exist\"); // Verifica se la petizione esiste\n        return (\n            petition.id,\n            petition.title,\n            petition.organizer,\n            petition.description,\n            petition.category,\n            petition.targetSignatures,\n            petition.numSignatures,\n            petition.isActive\n        );\n    }\n\n    // Funzione per firmare una petizione\n    function signPetition(uint petitionId) public {\n        Petition storage petition = petitions[petitionId];\n        require(petition.isActive, \"Petition is not active\");\n\n        // Controllo per verificare se l'utente ha gi firmato\n        require(hasSignedPetition(msg.sender, petitionId), \"You have already signed this petition\");\n\n        petition.numSignatures++;\n\n        signedPetitions[msg.sender].push(petitionId);\n\n        if (petition.numSignatures >= petition.targetSignatures) {\n            petition.isActive = false;\n        }\n\n        emit PetitionSigned(msg.sender, petitionId);\n    }\n\n    // Funzione per verificare se un utente ha gi firmato una petizione\n    function hasSignedPetition(address signer, uint petitionId) internal view returns (bool) {\n        uint[] storage signedIds = signedPetitions[signer];\n\n        for (uint i = 0; i < signedIds.length; i++) {\n            if (signedIds[i] == petitionId) {\n                return true;\n            }\n        }\n\n        return false;\n    }\n\n    // Funzione per ottenere le petizioni firmate da un determinato indirizzo\n    function getSignedPetitions(address signer) public view returns (Petition[] memory) {\n        uint[] memory signedIds = signedPetitions[signer];\n        Petition[] memory signedPetitionsArray = new Petition[](signedIds.length);\n\n        for (uint i = 0; i < signedIds.length; i++) {\n            signedPetitionsArray[i] = petitions[signedIds[i]];\n        }\n        return signedPetitionsArray;\n    }\n}\n",
  "sourcePath": "/home/studente/Desktop/Petition_dApp/contracts/Petition.sol",
  "compiler": {
    "name": "solc",
    "version": "0.8.21+commit.d9974bed.Emscripten.clang"
  },
  "schemaVersion": "3.4.3",
  "updatedAt": "2023-10-07T12:57:04.810Z",
  "devdoc": {
    "kind": "dev",
    "methods": {},
    "version": 1
  },
  "userdoc": {
    "kind": "user",
    "methods": {},
    "version": 1
  }
}